:0300000002076391
:0C076300787FE4F6D8FD7581070207AA34
:10065D0000017068583800000000416D731941EABF
:10066D000E8A422D1206425E2CDA4289A83142A32F
:10067D0081E542BCAAE842DC635442F40FDF430536
:10068D0090A44310CED9431AAFDF432567F0432F13
:10069D00DD2F433A11EC43430C4A434CCCCD43562A
:1006AD005375435FA1CB4367D3B64370BCEE43791B
:1006BD0073754380FC4A438662D1438A7021438E11
:1006CD00674C439249174395B5E343997127439D71
:1006DD0018D543A0AD9143A7497943AAAAA043AD2C
:1006ED00FB0243B13B2343B41A5E43B73CAC43BA60
:1006FD00500043BD54BC43C12C0843C410C543C670
:10070D00E81043C9B26F43CC2A7F43CEDD2F43D1CE
:10071D0083D743D41ED943D66D7143D8F2F243DB50
:10072D006DB243DDDDD343E006C943E2639643E496
:10073D00B68743E6FFBE43E9EAC143EC1ED943EE5B
:10074D004A1D43F06CAC43F2514843F463F843F651
:06075D006E7743F87127DE
:1007EF0050000A00000000000000000000000000A0
:1007FF0000000044000000000000420004006442BA
:0C080F0000060000410008004100090044
:1008800053D9BF1208D31208C01208961208691271
:0608900008ABD2AF80FEB0
:0708D30075B28375EF0422EA
:1008C00075E10175E2C043A41043A60453F2FD4351
:0308D000A77F22DD
:10089600E4F5C8438E1075CBFE75CAD374FFF5CD4B
:0508A600F5CCD2CA22CE
:1008AB0075E80275D10A75BB1375BA1F75BC184371
:0508BB00E608D2EF2267
:10086900759810758DCC438E08858D8B53890F43F0
:070879008920D28ED29922E2
:0300530002037C29
:10037C00C0E0C0F0C083C082C0D075D000C000C047
:0D038C0001C002C003C004C005C006C007C8
:1003990090001BE4F0A3F0C2EDC2CA900000E0F89F
:1003A900A3E0F9A3E0FAA3E0FBAFBDAEBEE4FCFD18
:1003B900EB2FFFEA3EFEED39FDEC38FC9000001210
:1003C900033F900005E024FFF0900004E034FFF0C3
:1003D900E07002A3E06002A10D900004F0A3746430
:1003E900F0E47B64FAF9F8900000E0FCA3E0FDA3D7
:1003F900E0FEA3E0FF12027F90001BEEF0A3EFF0F6
:1004090090000012034B0000000090001BE0FEA3C7
:10041900E0FF12052C900006E0FCA3E0FDFEA3E03E
:1004290075F008A4240AF582E43400F583E5822EE8
:10043900F582E43583F583EFF090065DE493FE746D
:1004490001937803C333CE33CED8F924FFFFEE34BA
:10045900FFFEED6F7002EC6E600281E4900006F021
:10046900A3F090000904F0120003EF64014E706BD1
:100479007FAA12081C90001AE4F090065DE493FE2E
:100489007401937803C333CE33CED8F9FF90001AA1
:10049900E0FDC39FEE6480F87480985028900008AE
:1004A900E075F008A4240AF582E43400F583E582B6
:1004B9002DF582E43583F583E0FF12081C90001ABC
:1004C900E004F080B57F5512081C900008E0B401E3
:1004D90004E4F080069000087401F0900009E0FF40
:1004E900700E900007E004F07006900006E004F03A
:1004F900EFB40105900009E4F0900006E0FEA3E0E6
:08050900FF120843B2A2D2CA9E
:10051100D007D006D005D004D003D002D001D0003E
:0B052100D0D0D082D083D0F0D0E032E8
:10000300E4FDFCFBFA90065DE493FE740193780330
:10001300C333CE33CED8F9FFC3ED9FEC9E5027AF49
:100023000574122FF582E43400F583E0FE740A2F81
:10003300F582E43400F583E06E60047A007B010D01
:0A004300BD00010C80BFAE02AF0348
:01004D002290
:08052C0090001DEEF0A3EFF0BA
:10053400E4A3F0A3F0A3F0900020F090001DE0FCF1
:10054400A3E0FDEC1201C0900020E025E025E024AA
:1005540063F582E43406F58312032F120059E4FB99
:10056400FAF9F812014E6002503590001DE0FCA328
:10057400E0FDEC1201C0900020E025E025E02467B6
:10058400F582E43406F58312032F120059E4FBFAD2
:10059400F9F812014E60084006900020E0A3F090A4
:1005A4000020E004F0E0B43F9290001DE0FCA3E0E2
:1005B400FDEC1201C090075F12032F120059E4FBF7
:1005C400FAF9F812014E60025006900021743FF0CF
:1005D400900021E0FFB43F02807590001DE0FCA371
:1005E400E0FDEC1201C0A804A905AA06AB0790001F
:1005F40021E025E025E02467F582E43406F5831242
:10060400031F120059C004C005C006C00790001D96
:10061400E0FCA3E0FDEC1201C0900021E025E02500
:10062400E02463F582E43406F58312032F120059A3
:10063400A804A905AA06AB07D007D006D005D004A4
:1006440012014E90002160025003E08002E0049009
:08065400001FF090001FE0FF01
:01065C00227B
:100843007C00EF5407FD7E00EF54187803CEC313EA
:10085300CE13D8F9FF53B078ED42B053B007EF9001
:05086300065F9342B0A6
:01086800226D
:1000560002022EE86480F8E933E83360110460F0A8
:10006600ED33EC337009E8FCE9FDEAFEEBFF220410
:1000760060DED3EB9FEA9EE99DE8C2E78CF0C2F70B
:1000860095F0400CE8CCF8E9CDF9EACEFAEBCFFBD7
:100096001201F985D0F05804700320D5B3E8047036
:1000A600075002B2D502023892D5EC0460F7E4CCD0
:1000B600C0E0C398F8603B94186008400DD0E0FBA0
:1000C600020210E4FBFAC9FC8028E830E406E4C921
:1000D600FBE4CAFCE830E305E4C9CACBFCE85407F4
:1000E6006010F8C3E913F9EA13FAEB13FBEC13FCFF
:1000F600D8F130F52FC3E49CFCEF9BFFEE9AFEEDA2
:1001060099FDD0E0FBEF4E4D4C701222DB0302024C
:1001160035EC2CFCEF33FFEE33FEED33FDED30E72F
:10012600EB020210EF2BFFEE3AFEED39FDD0E0FBBD
:1001360050130BBB0003020238ED13FDEE13FEEF66
:0801460013FFEC13FC02021090
:10014E0074F8CC6480CCC86480C8F582046043C364
:10015E00EB9FF5F0EA9E42F0E99D42F0E89C45F0F7
:10016E0060305018E5825FFFE582F42B5582FB501C
:10017E00210ABA001D09B90019088016E5825BFB39
:10018E00E582F42F5582FF50090EBE00050DBD000D
:10019E00010CC3EB9FF5F0EA9E42F0E99D42F0E8B8
:0D01AE009C45F06007CC4820E701B3EC222F
:1001BB0075F020800E75F010800575F0087D007EBF
:1001CB00007F003392D530D503120311EC3340106E
:1001DB00EF33FFEE33FEED33FDEC33FCD5F0ED22C8
:0E01EB00E5F0247EA2D513CC92E7CDCEFF2204
:1001F900E9D2E7C933E833F892D5EDD2E7CD33EC4C
:0702090033FC5002B2D522C4
:10021000EC30E7100FBF000C0EBE00080DBD00044F
:100220000BEB6014A2D5EB13FCED92E7FD2274FFFB
:10023000FCFDFEFF22E480F8A2D574FF13FC7D8054
:03024000E480EF68
:10076F00020880E493A3F8E493A34003F68001F218
:10077F0008DFF48029E493A3F85407240CC8C3338B
:10078F00C4540F4420C8834004F456800146F6DF5A
:10079F00E4800B01020408102040809007EFE47EF4
:1007AF00019360BCA3FF543F30E509541FFEE4934F
:1007BF00A360010ECF54C025E060A840B8E493A316
:1007CF00FAE493A3F8E493A3C8C582C8CAC583CA41
:1007DF00F0A3C8C582C8CAC583CADFE9DEE780BEF9
:01081B0000DC
:1002430075F008758200EF2FFFEE33FECD33CDCC72
:1002530033CCC58233C5829BED9AEC99E5829840F5
:100263000CF582EE9BFEED9AFDEC99FC0FD5F0D6D2
:10027300E4CEFBE4CDFAE4CCF9A88222B800C1B9FC
:100283000059BA002DEC8BF084CFCECDFCE5F0CB3A
:10029300F97818EF2FFFEE33FEED33FDEC33FCEB73
:1002A30033FB10D703994004EB99FB0FD8E5E4F92E
:1002B300FA227818EF2FFFEE33FEED33FDEC33FC1B
:1002C300C933C910D7059BE99A4007EC9BFCE99A0F
:1002D300F90FD8E0E4C9FAE4CCFB2275F010EF2F54
:1002E300FFEE33FEED33FDCC33CCC833C810D70754
:1002F3009BEC9AE899400AED9BFDEC9AFCE899F88F
:0E0303000FD5F0DAE4CDFBE4CCFAE4C8F92221
:0E031100C3E49FFFE49EFEE49DFDE49CFC22FD
:10031F00E493FC740193FD740293FE740393FF2224
:10032F00E493F8740193F9740293FA740393FB2224
:0C033F00ECF0A3EDF0A3EEF0A3EFF02231
:10034B00A8828583F0D083D08212036212036212DB
:10035B000362120362E473E493A3C583C5F0C58300
:10036B00C8C582C8F0A3C583C5F0C583C8C582C8FC
:01037B00225F
:10081C00EFB40A07740D120827740A309811A899BE
:10082C00B8130CC2983098FDA899C298B811F6303C
:07083C0099FDC299F5992214
:00000001FF
